S00A000050312E7372656399
S113000000600020153C0000B5380000C138000035
S1130010C1380000C1380000C1380000C1380000F8
S1130020C1380000C1380000C1380000C1380000E8
S1130030C1380000C1380000C1380000C1380000D8
S1130040C1380000C1380000C1380000C1380000C8
S1130050C1380000C1380000C1380000C1380000B8
S1130060C1380000C1380000C1380000C1380000A8
S1130070C1380000C1380000C1380000C138000098
S1130080C1380000C1380000C1380000C138000088
S1130090C1380000C1380000C1380000C138000078
S11300A0C1380000C1380000954F0000C13800007D
S11300B0C1380000C1380000C1380000C138000058
S1130400FFFFFFFFFFFFFFFFFFFFFFFF7EFFFFFF79
S1130410F0B5C34B061C8000C5588BB02B781B0964
S1130420181C04380393C0B2012383428041404224
S1130430984000D008E29A4200D005E268787F2311
S1130440984300D144E20B88002B00D1A2E1B549C6
S11304508A5D171C002E04D0701EC0B20F5CD71B1F
S1130460FFB2D21BD2B20024012101E00134E4B274
S1130470181C20410842F9D0002102910691201C49
S1130480211C944607936346CA18A74BD2B29B5CBF
S1130490069A0493934203D8029A934205D807E03C
S11304A0049B201C06930C1C02E0049A081C029274
S11304B00B1C079A019000E00B1C0131C9B20E2BF2
S11304C004D9079201980F2907D909E0131C0B419D
S11304D001200342F0D001980792079B0B41D2D12F
S11304E0031B6246DBB2844201D9201AC3B2012B3A
S11304F00DD9781E2979834205D1039B052B02D19E
S11305004023994301E040231943297103E02B79E7
S113051040218B432B71297940230B4000218B42CE
S113052000D066E18C4207D10398052815D1791EC5
S11305300123C9B2079312E0791E8C4207D10398B4
S1130540B91E0793052806D0CBB2079303E0631CBA
S1130550DBB20793611EC9B201E00121079107983C
S11305608018C3B288180293C3B29C466E48029B9B
S1130570C05C6D4B049060461B5C029104996A4810
S1130580994201D9079B029302998B18DBB2C05C94
S1130590664907900868844661460220002904D011
S11305A0A218D2B2301C0121E047039A052A0FD1C8
S11305B0002C03D102997B1E994206D0029A002A8C
S11305C006D17B1E9C4203D101E03C1C00E0029753
S11305D00021022800D00CE1039B052B0AD1391C11
S11305E0534802F045F980B20490E879391C013887
S11305F0C0B20DE00491012F0ED0013FB9B24C48B6
S113060002F036F980B20490E879F9B20138C0B248
S113061002F02EF9C0B2059004990798069A029B3D
S113062048435100A34205D902F022F904994C43EE
S1130630041904E0049A544302F01AF9241A3D4BB5
S1130640A4B21B68002B04D0221C301C0121984743
S1130650041CEB792409A4B25C43374B6A461B683B
S11306602732240A1470002B06D00121301C98472D
S11306700021022800D0BCE02B790021DA098A424B
S113068009D1012119401C0705D5AA792B4B002A51
S113069000D16A799A55039CEB78052C1FD1E8792F
S11306A0059C471E3F1B6C462734BB420BDD22785A
S11306B09446059A944506D264460219013AD21A20
S11306C0D2B2012015E02478BC4208DD059A934299
S11306D005D21A18013A121BD2B2022009E06A4666
S11306E0273212789A4201D29A1A00E0D21AD2B270
S11306F000206C4627342478EC70002A40D02F79EF
S1130700FF093DD0A3423FD001281AD0022817D0B8
S11307101A1BD2B2A34213D2E21AD2B2012010E0C1
S1130720D8660000DC66000074E1FF1F3C6700002F
S1130730FF0F00002867000030670000A8E1FF1FDA
S11307400020012318408301A8784024A0433F27B8
S113075018433A40B84380235B4202431A43AA70C9
S1130760AA795C4B002A03D16A79002A00D1FF22BE
S11307709A552B790224234206D02143C9B203E0BF
S1130780AB783F229343AB702A7980235B421343B7
S11307902B712EE0498800292BD04F4A1468002C75
S11307A003D0301C191C1A1CA0474C4B1B68002B8F
S11307B003D00021301C0A1C9847494B1B68002BAE
S11307C003D00021301C0A1C984769788B0604D595
S11307D0C906C90E301C01F049FBAA7829797F2388
S11307E019401340AB703B4B29710022C906C90F55
S11307F09A553848835D002B1AD1AC787F22271C88
S113080097432B79002F0CD022400424AA70234252
S113081001D02143C9B21C070AD56A792D4B9A55D8
S113082006E0934304D06B79082421438355C9B26D
S1130830081E4DD068784023184049D0294BB60093
S11308402878F358984736E0022A02D12879C0095B
S11308503EE0032A03D16878C006C00E38E0042ABB
S11308602BD14022EA711C4A002314686B70AB70D0
S1130870EB702B716B71AB719C4203D0301C191C53
S11308801A1CA047154B1B68002B03D00021301CF9
S11308900A1C9847124B1B68002B03D00021301C04
S11308A00A1C98476B782020184011D0D906C90E2D
S11308B0301C01F0DBFA00200AE0052A05D1687833
S11308C07F23984304D0042002E0062A00D1101CA0
S11308D00BB0F0BDA8E1FF1F3C67000030670000CB
S11308E028670000D066000038B5124B8000C55858
S11308F0114BC3581C68012916D12388101C002BE6
S113090010D09A1AE97912B2CD00AA420AD26942E9
S11309108A4207D9094A11784B430131C01801F0C2
S1130920F5FF80B2208003E00020814200D12280C4
S113093038BDC046D8660000D466000024670000B5
S1130940F8B51B4B8000C358171C5C68DE6801298E
S113095028D1184B20781D78291C01F0CDFFC9B28D
S113096071180B783A780A703B7022786B00013B5F
S11309709A4210DA6B1E9A4209D17319013B197815
S1130980002302E0F1540133DBB29342FADB237813
S11309900133237000E025702078A842AD416842FD
S11309A0023003E00020814200D12070F8BDC0462F
S11309B0D46600002C67000008B5084B185C5B5C2B
S11309C06421C018064B40081B785BB2584380B2C0
S11309D001F04EFF0230C0B208BDC0464CE1FF1F1B
S11309E035670000F7B5304C80000059846807690A
S11309F0012948D12D498E5CC95C01916578281E76
S1130A003CD00221019861566DB2091AAD1B4919F7
S1130A1089B208B27E2802DC7E3002DB02E07F214C
S1130A2000E0234920783954224821780078814213
S1130A3001D2013100E00021217000210D1C9C46EF
S1130A4003E07B5601315D19ADB2CBB28342F8D3DA
S1130A5019490F68002F04D0101C6146B847C3B26F
S1130A6001E0164B1B785BB22DB20320AB4205DBD1
S1130A705B42E917DA0F9D425141401A6A461279E6
S1130A806670A2700FE0002081420CD1094B1A78E5
S1130A900B1C01E07B540131CDB200209542F9D307
S1130AA020706070A070FEBDD466000074E1FF1F6A
S1130AB081FF0000346700003867000035670000DC
S1130AC070B50607394B360F141CB200D558F02305
S1130AD01840031C503B5A425341402802D0362050
S1130AE0002B62D0332000295FD0012919D1E306FD
S1130AF001D120239C432021214002D1301C01F04C
S1130B00B5F940231C4205D0294AB600B258002A40
S1130B1000D19C432B79002B01D17F231C406C70A6
S1130B2042E0022941D003293FD004291DD11F23CB
S1130B301C40221C08231A4006D00C4202D06A79B9
S1130B40002A0CD19C4304E01A4B995DFF2900D084
S1130B509A55002C03D16A787F2313406B702B794C
S1130B603F2293431C432C711EE005290CD1002C19
S1130B7008D12B79082293432B710E4B9A5DFF2ADF
S1130B8000D09C556C710FE0062901D1AC710BE0CB
S1130B903220072909D13520002B02D0022C04D998
S1130BA001E0012C01D9EC71002070BDD866000071
S1130BB0D0660000A8E1FF1F00B50007034B800EBC
S1130BC0C3583220072900D8585C00BDD8660000FD
S1130BD000B57F23984204DC021C81237F3200DBB2
S1130BE0C3B258B200BD70B51E4B041C1B68002B69
S1130BF003D01D4B4200D3569BB21C4A1268002AF4
S1130C0008D0062161431A4A8A5619B2914200DA81
S1130C10131C9BB2174D1EB229576000164A8E4210
S1130C2005DB2B55154B00195B78135411E00019A3
S1130C30165C002E02D0013E16540AE0081C4843FC
S1130C401B1818B2013101F061FE00B2FFF7C0FFBA
S1130C5028550A4B1A78074B51B21857884200DAC4
S1130C601A5570BD646700006CE1FF1F68670000DF
S1130C70D0E1FF1FCCE1FF1FDCE1FF1F7467000020
S1130C8010B50B88C01A04B27F3401DA7F204042C9
S1130C9004B27F2C00DD7F2004B2944201DD0133D5
S1130CA004E052420020944202DA013B0B80062009
S1130CB010BD10B50B785CB2001B04B27F3401DAAE
S1130CC07F20404204B27F2C00DD7F2004B2944296
S1130CD001DD013304E052420020944202DA013B78
S1130CE00B70062010BD10B5124A031C515C7F2204
S1130CF00A407F2A1CD01049C978CC0708D50F496F
S1130D00895C022904D10E4B9B5CC01A80B20FE0AF
S1130D100C490D485200515A125A914201D98A1A6B
S1130D2000E0521A92B20020934201D99B1A98B261
S1130D3010BDC046FCE1FF1F54E1FF1FE4E1FF1FAB
S1130D404CE1FF1F80E1FF1FF4E1FF1F024B400055
S1130D501A88024BC252704738E2FF1F80E1FF1F1E
S1130D6010B5034C011C208802F072FF208010BDD6
S1130D7038E2FF1F10B5034C011C2088FFF7B3FFB6
S1130D80208010BD38E2FF1F10B5044C044A2388AC
S1130D90115C181C01F0BAFD208010BD38E2FF1F61
S1130DA070E1FF1F70B5084B084D1C5C0848211CFE
S1130DB02E8801F05DFD864203D901235B422B801E
S1130DC001E074432C8070BD64E1FF1F38E2FF1F13
S1130DD0FFFF0000F7B5784B041C5D790E1C022759
S1130DE0002D00D0EFB2201C00F032FD012E0AD1FC
S1130DF0724B1B78002B00D1D5E0714B1A578242FD
S1130E0000DBD0E09FE0022E0DD16E4B1A578242D8
S1130E1000DA1855201CFFF7E6FE63001C196A4B24
S1130E200022E254BFE0032E00D08EE0201CFFF726
S1130E30DAFE644B654A185D00282ED0115740B283
S1130E400918C80F41184910C9B2115500221A5582
S1130E50594F5B4B019104201B5738565843FFF7F9
S1130E60B7FE6B46061C04201856B0420FDB032164
S1130E707956801B01F04AFD801900B2FFF7A8FEE5
S1130E80514A63001B19D3185870BA7819E06300EB
S1130E904D4A1B19D3185E7014E04B4863001B19AC
S1130EA0C318115D01269E5748B286420ADA987823
S1130EB0002802D00138987004E0013911553E4AE7
S1130EC092789A703E4A3C490420125708563F4E85
S1130ED050433357834203DA00B2FFF779FE3055AB
S1130EE0002D10D13A4B03251B78002B0BD0201C6E
S1130EF000F070FA374B8200D358002B03D0002146
S1130F0006229847051C2E4B291C1F5D2F4B7EB2D1
S1130F101857801B01F0FAFC801900B2FFF758FE45
S1130F20B04201DC0137F8B22B4B42B21B5D9A424E
S1130F3008DA5900CB18D318D817800FC3189810A3
S1130F40FFF746FE244B18552DE0042E2BD11B4AE7
S1130F501B4B1278002A02D1174A12781A551E4DDB
S1130F602A5D002A07D1144A04201B5710565843FF
S1130F70FFF72EFE2855184B7FB2185D104B1B57F8
S1130F80C01A4743FB1818B2FFF722FE0F4B0D4A55
S1130F9018550023135561000B4A0C1911197F20B1
S1130FA048708B70A3540D4B1B68002B01D001209B
S1130FB098470020FEBDC046746700006D670000BE
S1130FC0CCE1FF1F68E1FF1FDCE1FF1F50E1FF1FC1
S1130FD0F1660000E06600004CE1FF1F08670000B6
S1130FE0F0B589B0051C0591062A13D1514A450074
S1130FF05519514B514A1B7810786B70584350491E
S1131000002300B2812201E0CA5401331CB284429D
S1131010FADB8BE0052A00D088E0464A43004649C3
S1131020D3185A780F78BA4200D37DE0434B1C782A
S113103044434348821813577F3362D07E08A31970
S11310400021C0180A1C00900B1CA4460AE03C486E
S1131050041C6444E45600986118C45689B2A2186A
S113106092B20133B342F2DB89B2521A7F23049164
S11310703448B90806910193002113B264460090E4
S1131080029107932EE0069A0399079B881A584306
S1131090311C01F03BFC0499081800B2311C01F02A
S11310A035FC274A039913195B566946C01A80B266
S11310B002B2944600228A5E031C944501DA6A4611
S11310C0138869469BB2043100930023CB5E02B2BD
S11310D09A4201DD6A469088029B80B201339BB23A
S11310E00190029368460821085E0390B842CADB67
S11310F0009A019BD01A00B2FFF76AFD0D4B6A00FB
S1131100D0540C4B0E4A69000598591814194978A3
S113111082227F3002D06A461420825C6D006254C1
S11311205B195A78013200E000225A70002009B09D
S1131130F0BDC0466CE1FF1F6E670000F066000062
S1131140A4E1FF1F81FF0000F7B50C1C062A08D19B
S11311505043194B8CB21A18548094800022C25404
S113116027E0052A25D106264643134F134BBD1904
S11311706988019100215956114B019A1B78A8885E
S11311805BB24A4358431018C918001900B2013120
S113119001F0BCFB6A4683B292886B801BB2AA80C2
S11311A0181BA34200DCE01A400000B2FFF710FD58
S11311B0F0550020FEBDC046D0E1FF1F6F67000060
S11311C07067000000B5084A084BD178880607D537
S11311D01978002901D192791A701A78013A00E03D
S11311E092791A7000BDC04654E1FF1FD8E0FF1F7A
S11311F010B5072404400123A340084ADCB2C30805
S1131200011CD05C204207D0A043D054044B1B687F
S1131210002B01D00420984710BDC046C4E1FF1F35
S1131220E866000000B50223062808D00823052834
S113123005D00423072802D0431E58424341181CFA
S113124000BD044A00231354034A1354034A13549D
S11312507047C046C0E1FF1FB0E1FF1F04E2FF1F5B
S113126010B5041CFFF7EDFF034B00221A55034B86
S113127004221A5510BDC046BCE1FF1FE4E1FF1F64
S113128010B50E4A00234400A352191C0C4A0D4BFE
S113129014781B780C4A1C1914540C4A0524145451
S11312A00B4A1268002A07D00A4A1154002B03D0B3
S11312B0094B1A78094B1A5410BDC046F4E1FF1FBC
S11312C06C6700006D670000C0E1FF1FE4E1FF1FD1
S11312D06067000068E1FF1F74670000CCE1FF1F36
S11312E0F8B5041C03250727031C3B4001229A4040
S11312F0131C1B49C208D2B28A5C1A420AD0194B89
S11313001B5C043B012B02D8022D02D102E0022512
S113131000E00425144E83009B5904219847A04201
S1131320E2D10127042D13D1A3009B59201C0321D2
S11313309847071C02280BD1251C281CFFF7A0FF87
S1131340AB00281C9B5904219847051CA042F4D1EA
S1131350064B1B68002B01D002209847381CF8BDAF
S1131360ECE1FF1FE4E1FF1FA46700001467000025
S113137008B5FFF7B5FF431E5A1E93415B42184060
S113138008BDF8B5002407260127231C33403A1C66
S11313909A40131C0C49E208D2B28A5C1A420CD05F
S11313A0201CFFF79DFF094D00E0041CA3005B59BE
S11313B0201C04219847A042F7D8054B01341B7820
S11313C0E4B2A342E1D1F8BDECE1FF1FA467000041
S11313D0F066000030B5084B08491C78002305E08E
S11313E001335D18013D2D78854202D8DAB2A2425C
S11313F0F6D3101C30BDC046F1660000DC66000068
S113140070B5061C0C1CFFF7E5FF051C012C16D15A
S1131410002E03D0134B1B5CB34210D107222A4089
S1131420012393401A1C1049EB08DBB2CB5C1A4031
S11314300E4B03D05A5D002A01D0013A5A550C4B89
S1131440AA00D3581024002B0AD0281C00210522FE
S11314509847042804D1054B5C5D002C00D010246F
S1131460201C70BDDC66000078E1FF1FC8E1FF1F8F
S1131470E066000008B5064B1B68002B00D09847B7
S1131480012003F059FE034B00221A705A7008BD64
S113149020670000D8E0FF1F10B5074B07491878F4
S11314A000231A1C5C1801332270DCB28442F9D385
S11314B0034B01221A7010BDF2660000B4E1FF1F55
S11314C000E0FF1F00B5044B002901DD195401E0C1
S11314D000221A5400BDC04674E1FF1F024B4000B5
S11314E01A88024BC252704738E2FF1FB8E1FF1F4F
S11314F030B50E4AD378DC0617D50D4C235C013386
S1131500DBB22354127A9A420FD10725094A0540C7
S11315100124C308AC40251CD45C4000AC43D45423
S1131520054BC9B2C25A8918C15230BD54E1FF1FDC
S113153048E1FF1FC4E1FF1FF4E1FF1F014B00223C
S11315401A54704748E1FF1FF0B5061C87B0072006
S1131550331C0291034001219940CBB20593F40856
S1131560694B04949D5D694B9F5D694B9B5D009342
S1131570684B9B5D0193042D03D06B426B41002BA0
S11315800DD0029952B20324914200DA89E000247A
S1131590019401240094271C251C052481E0510892
S11315A04C080394012D33D1029C013752B2FFB28F
S11315B0944206DB009A01930132D2B200920624CF
S11315C013E0019B06240133DBB20193022B0CD1FF
S11315D069460C22029C5356E50FDA17301CA342CD
S11315E05541FFF72EFEAD0003244B4BDB79BB4284
S11315F057D87A08BB08009CD31802259C423CDCCF
S1131600029C039904258C4200DD002503243BE061
S1131610022D09D1029A01248A4242DC0194271C3A
S113162000930325041C3CE0032D31D1029C0137B7
S1131630FFB28C4206DC019A00930132D2B20192CD
S113164008240BE0009B08240133DBB20093022B37
S113165004D1301CFFF7F5FD009D01242E4BDB79EE
S1131660BB421ED87A08BB08019CD3189C4206DDF5
S1131670029C03998C4205DC04252C1C04E0022501
S1131680012401E000250424301CFFF7DAFD08E002
S1131690029C03998C4202DC04252C1C01E01D1CD5
S11316A004241E4B1B68002B04D0012C02D1301CD7
S11316B0029998471A4B1B68002B03D0022C01D1C6
S11316C0301C9847631E012B05D80499154B5A5CAE
S11316D005990A4307E0E31E012B06D80499114B30
S11316E05A5C05998A4304995A54074B6A469D5596
S11316F0064B12789F55064B69469A550979054B56
S1131700201C995507B0F0BDE4E1FF1FC0E1FF1FA5
S1131710B0E1FF1F04E2FF1F54E1FF1F4867000010
S11317204C670000C4E1FF1F38B5051C081C0C1CE5
S1131730FFF750FE002805D0124B1B18013B1B7805
S1131740E41AE4B20123A3409CB240006B1EC0B271
S1131750012B04D80C4B4200D15A214306E0EB1E66
S1131760012B04D8084B4200D15AA143D152042D75
S113177001D0022D05D1044B01304000C25A14435C
S1131780C45238BDDC660000F8E1FF1F10B5041C2C
S11317900B1E01DA4B42DBB2194A105D01301055C1
S11317A0184AD8B2125D184B904207D3002905DAC3
S11317B0164A115D01311155002201E01A5D013212
S11317C01A55114B1B5D022B02D1201CFFF748FD5B
S11317D00B4B0F4A1B5DD279520893420ED30B4A2E
S11317E05908125D9B08CB189A4204DD094B62002C
S11317F01988094BD152201CFFF732FD10BDC04699
S1131800C0E1FF1F4CE1FF1FB0E1FF1F04E2FF1F17
S113181054E1FF1F38E2FF1FF4E1FF1F10B5002958
S113182004DD094B4200D45A013405E0002904D0F8
S1131830054B4200D45A013CD452044B1B68002B84
S113184000D0984710BDC046F4E1FF1F5067000068
S113185000B50C4B4000C25A0B4B1B88934203D972
S11318609A1A92B2012302E0D21A92B2FF23181CF0
S11318705043C0B27F2A02D9D801C31AD8B240B2A9
S113188000BDC046F4E1FF1F38E2FF1FF7B58C4BE3
S1131890041C1B68002B00D098478A4B1B68002B44
S11318A001D0201C9847884B1B5D052B4DD1874BDD
S11318B09B78590700D501E1854B1A5D854B1B7850
S11318C09A420FD3844B6200D15A8448002901D133
S11318D0018805E04D000088691889B2411889081B
S11318E0D15206E07E4B1B68002B02D0201C012144
S11318F09847774B1A5D002A02D0013A1A55DDE069
S1131900784B1B68002B01D0201C9847201CFFF744
S1131910A7FC201CFFF76CFC714B1B68002B02D04A
S1131920201C04219847704B1B68002B03D0201CFB
S11319300021062298476D4B1B68002B00D1BDE0A7
S1131940201C002106229847B8E0694B1B68002B35
S113195001D0201C9847634B1B68002B01D0201C2E
S11319609847644B1E68002E01D0201CB047201CF1
S1131970FFF76EFF604B051C1B68002B02D0201C78
S1131980291C98475D4B1B68002B01D0201C9847ED
S1131990554B1B68002B03D0201C291C052298479B
S11319A0524B1B68002B03D0201C291C052298478E
S11319B04B4B1B68002B13D0002E07D0434AD27820
S11319C0D10703D54E4A125D7F2A09D83E4A201C0E
S11319D0125D042A02D00221002A00D10321984773
S11319E03A4B7F219A788A4301920CD0DA7A201CF0
S11319F0291CFFF7A9FD022860D1424B1B68002B6C
S1131A005CD098475AE0404B1B680093002B2BD0C6
S1131A103E4B1B78002B27D0201CFFF7DBFC3C4BF4
S1131A208200D658071C002E17D001990522B04712
S1131A30042808D1374B291C1A5D201CFFF784FDAC
S1131A40211C009A9047381C00210222B047461EF0
S1131A5073425E41764206400DE02E4B201C1A5D17
S1131A60291CFFF771FD06E02A4B201C1A5D291C76
S1131A70FFF76AFD00261F4B1B68002B06D0204B86
S1131A801B5D7F2B02D002231E43F6B2224B1B7830
S1131A90002B0BD1002E09D10C4BDB78990605D510
S1131AA0094B1B5D042B05D0002B03D0074B9B78FF
S1131AB0DA0703D5201C291CFFF7B0FEF7BDC0468A
S1131AC05C67000058670000E4E1FF1F54E1FF1F5A
S1131AD0C0E1FF1F6D670000F4E1FF1F38E2FF1F44
S1131AE060670000FC66000064670000686700002F
S1131AF0F4660000F8660000006700000467000058
S1131B00FCE1FF1F40670000E8660000F16600008A
S1131B10E06600004CE1FF1FD8E0FF1FF8B55D4D03
S1131B206B78002B1BD1AB705B4B5C4C1B78012B8F
S1131B300DD1FFF747FB2368002B0FD002209847F5
S1131B40E87008280BD1AB781843A87007E0236825
S1131B50002B03D001209847E87000E0EB70687810
S1131B60072601220640131CB340DEB24C4BC508C5
S1131B701B68002B04D0484A1178984742424241DE
S1131B80484B595D0123314206D04749495D3140F4
S1131B90484241410A40534044493E4A8878C0097A
S1131BA004D050788B7A98425CD101E0002B59D153
S1131BB050783F4B8100CB58002B53D0D278002A69
S1131BC005D1354A11789847041C012805D1314BB9
S1131BD001219A780A439A7044E0334B5A5D3243A8
S1131BE05A55324B7F229B7893435A4253415B426E
S1131BF01C40E31EDBB2012B07D82E4B1B68002BC5
S1131C0005D0244A50789847041C002C04D1214B59
S1131C105878FFF73BFE25E0A31FDBB21D4F012BD5
S1131C201AD8204B78785A5D0521B2435A55204B77
S1131C308200D35898471F4B1B68002B01D078783B
S1131C409847144D6878FFF7D3FA201CFFF7EAFA97
S1131C50697800F07DFA05E0201CFFF7E3FABD780F
S1131C600543BD700B4B14485A7800780132D2B248
S1131C7001245A70211C90420AD89C7800225A7080
S1131C800C4203D0044B02221A7001E0FFF704FC5B
S1131C90201CF8BDD8E0FF1F00E0FF1F1467000000
S1131CA0EC660000ECE1FF1FB4E1FF1F54E1FF1FED
S1131CB0A467000054670000F0660000F0B500203F
S1131CC085B0604E0090071C041C002C16D15E49A0
S1131CD00B78012B0CD1FFF775FA3368002B0DD06C
S1131CE0022098470090082808D10743FFB205E076
S1131CF03368002B02D0012098470090072301226B
S1131D002340101C9840C3B20293504BE1081B6857
S1131D100191002B05D04C4A201C1178984742426F
S1131D2042414B4B19784B4B002902D1D978880694
S1131D3004D499780123194202D102E0012200E07F
S1131D401A1C454B0198195C02980123014208D0E2
S1131D5001984249095C02980140484241410A40C5
S1131D6053403C4A9178C90903D0937AA34257D18E
S1131D7001E0002B54D13A4BA200D2580392002A1E
S1131D804ED00099002906D12F4B201C197890477A
S1131D90051C012802D101231F4341E02F4B019868
S1131DA002991A5C0A431A542A4B7F229B78934364
S1131DB05A4253415B421D40EB1EDBB2012B06D855
S1131DC0284B1B68002B04D0201C9847051C002DB1
S1131DD003D1201CFFF75AFD22E0AB1FDBB2012B1D
S1131DE019D81D4B019802991A5C8A431A5405218B
S1131DF0201C039A90471B4B1B68002B01D0201C0E
S1131E009847201CFFF7F4F9281CFFF70BFA211C54
S1131E1000F09EF904E0281CFFF704FA0743FFB220
S1131E20114B01341B78E4B2A34200D94DE7FB0700
S1131E3003D5054B02221A7001E0FFF72DFB381C75
S1131E4005B0F0BD1467000000E0FF1FEC66000061
S1131E50D8E0FF1F54E1FF1FECE1FF1FB4E1FF1FB7
S1131E60A467000054670000F066000030B5072442
S1131E70C20804400125074BD2B2A540002902D173
S1131E809C5CAC4302E02C1C9D5C2C439C54024B98
S1131E90195430BD78E1FF1FC8E1FF1F70B50E4B28
S1131EA00E4A1D680E4B7F201C780023191C002D40
S1131EB002D0D618317000E0D0540133DEB2A6420D
S1131EC0F5D3084B08491878FF220023CA5401337C
S1131ED0DCB28442FAD370BD606700004CE1FF1F9E
S1131EE0F0660000F2660000ECE1FF1F70B5224DC1
S1131EF0224E0024201CFFF7B3F92B68002B01D0DD
S1131F00201C9847201CFFF7BBF901343378E4B256
S1131F10A342EFD81A4B1B481A7800235400191C0B
S1131F205D000133DBB22952A342F9D30023164DDD
S1131F301648FF24191C1E18EC5401333170DEB20C
S1131F409642F8D3124B1349187800231A1C5C18D4
S1131F5001332270DCB28442F9D30F4B0F49187855
S1131F6000231A1C5C1801332270DCB28442F9D3BA
S1131F70FFF792FA70BDC0464C670000F06600009F
S1131F80F1660000F8E1FF1FA8E1FF1FC8E1FF1F91
S1131F90F366000078E1FF1FF2660000C4E1FF1F52
S1131FA070B51B4B08225A7164229A710422DA71AB
S1131FB00F225A723F22DA72FF2200245A7301223E
S1131FC01C705C801C711C729C721A73FFF78EFF6C
S1131FD0FFF764FF0F4B104E1D7809E0A3009B59D7
S1131FE0002B03D0201C0021042298470134E4B2C2
S1131FF0A542F3D8094B1B68002B01D00120984758
S1132000FFF738FA2023184000D0022070BDC046E4
S113201054E1FF1FF1660000E0660000086700005D
S113202038B503283BD000231F491A1C5C18A47838
S113203001331219D2B20C2BF8D11C4B1C491C7859
S1132040002303E0CD5C01335219D2B2DDB2A542C4
S1132050F8D3184B18491C78002303E0CD5C0133F6
S11320605219D2B2DDB2A542F8D3144B022813D1CF
S113207019780023914214D00B4B04211A780A4397
S1132080D9781A707F220A40DA700D4B1B68002B36
S113209007D0FF20984700E01A70002301E0074BA7
S11320A01B78181C38BDC04654E1FF1FF0660000C1
S11320B04CE1FF1FF2660000ECE1FF1F4AE1FF1F45
S11320C01C670000F8B51C4B00241C4D1F7830E041
S11320D00723234001229A40D3B22A88002A04D03D
S11320E01749E208885C98438854164E315D0029EC
S11320F00BD11348E208825C1A4206D0124BA200AC
S1132100D358201C032298473055104B1A5DFF2AE0
S113211001D0013A1A550C4BA200D358002B03D01E
S1132120201C291C01229847002301346B80E4B24F
S11321300435A742CCD8F8BDF1660000F8E1FF1FD2
S113214078E1FF1FC8E1FF1FE0660000A8E1FF1F60
S113215010B5031C134A980703D5107801242043B3
S11321601070580703D510780224204310700824F7
S11321700C4A234206D01378D0781C437F230340B3
S11321801470D3701378002B0BD0074B1B68002BF3
S113219001D0081C9847054B1B68002B01D0012077
S11321A0984710BD54E1FF1F1C670000086700003A
S11321B000B5124A031C117B03220A400020022AA4
S11321C01AD1032B05D10E4B1A787E2A14D801326A
S11321D011E0012B05D10A4B1878434258414001C4
S11321E00AE0022B08D1064B01201A789042804164
S11321F04042C00000221A7000BDC04654E1FF1FD7
S1132200DCE0FF1FF8B51F4B1D68002D01D0022034
S1132210A8471D4B00275A881C4B1A4080231B02D9
S11322209A4224D1FFF74AFDFE23041C071C1842DE
S113223002D0FF21FFF78CFF01231C4217D1124C5F
S1132240A2781A4201D09A43A270A378042633429A
S113225004D0FFF796F8A378B343A370002D01D000
S11322600120A8470A4B1B68002B00D09847012087
S11322703C1C044005D1074B1868002801D0804756
S1132280201CF8BD0867000054E1FF1F4080FFFFD9
S1132290E46600000C670000F8B51F4B1D68002DB4
S11322A001D00220A8471D4B00275A881C4B1A4016
S11322B080231B029A4224D1FFF730FCFE23041C26
S11322C0071C184202D0FF21FFF742FF01231C42E2
S11322D017D1124CA2781A4201D09A43A270A37863
S11322E00426334204D0FFF74CF8A378B343A37019
S11322F0002D01D00120A8470A4B1B68002B00D0F9
S1132300984701203C1C044005D1074B186800285D
S113231001D08047201CF8BD0867000054E1FF1F6E
S11323204080FFFFE46600000C670000014B800062
S1132330C150704700E2FF1F014B8000C058704736
S113234000E2FF1F014B8000C0587047D8660000B0
S113235000B5064B002801D1187805E01A5C013855
S1132360C0B21B5CD01AC0B200BDC046DC6600001F
S113237000B5002803D00138014BC0B2185C00BD81
S1132380DC660000024B185C0138C0B27047C046DE
S1132390DC66000070B5041C0B2829D107252940F0
S11323A004200E1C06401A4B0325002E0ED01B7B66
S11323B000242B40022B14D1052002F0BDFE154B46
S11323C0041C1B68281C984780200BE01C7B4C4095
S11323D02C4006D00D401D7302F0AEFE041C301CD0
S11323E000E0201C0C231C4210D1072318430DE0ED
S11323F000200C2C0AD1064B0420597302F09CFED9
S1132400044063425C4107206442204070BDC046E2
S113241054E1FF1F1467000070B5031C08280BD19A
S113242004200F2955D82B4B0620597202F084FE44
S11324300123034005200FE0092812D1264B042074
S11324401B78013B994244D8224B9972062002F032
S113245073FE0223034006205A4253415B42184054
S113246037E00A2805D10420002932D0194BD9724B
S1132470ECE70020012B2CD1164A40239078450626
S1132480ED0FAD014D401D402E1E07D0984319405D
S113249001439170022002F04FFE061C0D4CA378FC
S11324A09A085B06DB0F1A4206D0082002F044FEAD
S11324B0A37804229343A370281E0AD0072002F0B5
S11324C03BFE012306431E4073425E4105207642D3
S11324D0304070BD54E1FF1FF066000038B5114C68
S11324E0C009A378DA0982421AD07F25C0012B40A3
S11324F00343A370022002F01FFE082002F01CFE1A
S1132500FFF7F4FCA378AB430AD0074BA07A1988F1
S1132510064B4200D152064B1B68002B00D0984753
S1132520002038BD54E1FF1F38E2FF1FF4E1FF1F14
S1132530FC66000070B5CDB20C2800D9BAE0824B1D
S1132540002815D10F221B7815400122134200D117
S113255095430222134200D195430422134200D131
S113256095430822134200D19543774B1D70C9E06F
S1132570012862D198780422104204D10C1C144022
S113258090432043987098780122104204D12C1C67
S113259014409043204398706B4B9879DA78002864
S11325A002D12020824305E08804C00F202440018A
S11325B0A2430243DA70644B187ADA78002802D115
S11325C01020824305E0C804C00F10240001A24378
S11325D00243DA705C4B02209E780C1C8643044054
S11325E0301C204301228C0B9870D878402614406C
S11325F0A401B04320437F24CE0B20408024944088
S1132600F601214030430C1290432043D8704F48C8
S11326100068002804D1002902D0D9789143D970E8
S11326204B4B1B68002B01D0281C9847494B0524B1
S11326301B680120002B39D170E0042808D16A1EE0
S1132640041C1F2A6AD85D71032002F075FD59E04D
S1132650052807D1002D03D1DA7820218A43DA70C6
S11326609D714FE0062805D16A1E04241F2A55D8FF
S1132670DD7147E0072807D1002D03D1DA78102156
S11326808A43DA701D723DE0031C083B022B03D819
S1132690304B05241B6807E0031C0B3B0024012B73
S11326A03CD82D4B07241B68002B37D0291C984796
S11326B0041C33E0294B1B781A1C0D32904208D2BB
S11326C0AB1E04247D2B29D8254B18180D38057012
S11326D018E0244A11785A18141C0D34A04213D25D
S11326E00D225242D31A204A1018C554022002F077
S11326F023FD1E4B1C68002C10D0134B04219A7828
S11327000A439A70002409E00B1C0D339B18032420
S1132710984203D3C01A431E9841241A0A4B02213B
S11327209A780A4206D08A439A70FFF739FC022845
S113273000D109240E4B1B68220603D4002B01D0C0
S113274001209847201C70BD54E1FF1FF86600006B
S1132750446700001867000010670000F06600007E
S11327604CE1FF1FF2660000ECE1FF1F546700001C
S11327700867000010B5031E01D12B4B31E0012B7B
S113278021D1294BDA789B785106D009C90F8903E6
S1132790C0030843D907C90FC9B208439106C90F3A
S11327A0D2064903D20F08431203D9091043C901C1
S11327B008434021194008430421194002220843D8
S11327C0134018432EE00C2B02D8184AD05C29E0A1
S11327D0174A11780A1C0D32934204D2154AD318B1
S11327E00D3B18781EE0144A10780A18141C0D3496
S11327F0A34206D20D225242511A104AD318585CF1
S113280010E0011C0D3189188B4202D29B1A0C4A2C
S1132810E5E702208B4205D10A4B1B68002B01D04F
S11328200320984710BDC04654E1FF1F55E1FF1F28
S1132830F06600004CE1FF1FF2660000ECE1FF1FB0
S1132840C4E1FF1F0867000002B47146490849004B
S1132850095649008E4402BC7047C04602B4714612
S113286049084900095C49008E4402BC7047C046CF
S1132870002934D00123002210B488422CD301242F
S11328802407A14204D2814202D209011B01F8E7C4
S1132890E400A14204D2814202D249005B00F8E77D
S11328A0884201D3401A1A434C08A04202D3001BA9
S11328B05C0822438C08A04202D3001B9C082243DC
S11328C0CC08A04202D3001BDC082243002803D01A
S11328D01B0901D00909E3E7101C10BC704700284C
S11328E001D00020C04307B4024802A1401802905E
S11328F003BDC046D90000000029F0D003B5FFF79E
S1132900B9FF0EBC4243891A1847C046002941D07A
S113291010B4041C4C40A44601230022002900D515
S11329204942002800D5404288422CD30124240780
S1132930A14204D2814202D209011B01F8E7E4005A
S1132940A14204D2814202D249005B00F8E78842E6
S113295001D3401A1A434C08A04202D3001B5C085E
S113296022438C08A04202D3001B9C082243CC08BB
S1132970A04202D3001BDC082243002803D01B0919
S113298001D00909E3E7101C6446002C00D540423D
S113299010BC7047002806D003DB0020C043400869
S11329A001E08020000607B4024802A1401802900A
S11329B003BDC046190000000029EBD003B5FFF7A2
S11329C0A7FF0EBC4243891A1847C0467047C04649
S11329D08446081C6146FFE71FB500F0BBF80028D9
S11329E001D40021C8421FBD10B500F043F8404295
S11329F0013010BD10B500F0ADF8002801DB002057
S1132A0010BD012010BDC04610B500F0A3F8002889
S1132A1001DD002010BD012010BDC04610B500F03E
S1132A2051F8002801DC002010BD012010BDC04673
S1132A3010B500F047F8002801DA002010BD01208D
S1132A4010BDC0469E2110B5C905041CFFF7F0FF58
S1132A50002803D1201C00F0CBFB10BD9E22201CBB
S1132A60D10500F0EFF900F0C3FB80231C06001928
S1132A70F3E7C0464302420070B55C0AC60F130E6A
S1132A8048024A00450A120EC90FFF2B05D0FF2A3F
S1132A9008D0012093420BD070BD0120002CFBD143
S1132AA0FF2AF6D10120002DF6D101209342F3D163
S1132AB0AC42F1D18E4203D0002BEDD1002CEBD1EE
S1132AC00020E9E7F0B5430242004F00C60F480278
S1132AD05C0A450A130EC90F3A0EFF2B26D0FF2AB3
S1132AE029D0002B0CD1604260418446002A0AD0D0
S1132AF0002816D18E4221D0002E14D1012014E0DA
S1132B00002AF7D194466F426F416046002805D1F0
S1132B10002FEFD00120002E07D004E00020002F6A
S1132B2003D10029EAD101214842F0BD002CD6D0BE
S1132B3002225042F9E7002DD3D0F9E79342DBDCBF
S1132B4004DBAC42D8D80020AC42EED2002EEAD04E
S1132B500120EAE7F0B5430242004F00C60F4802E5
S1132B605C0A450A130EC90F3A0EFF2B26D0FF2A22
S1132B7028D0002B0FD0002A14D194466F426F4105
S1132B806046002814D00020002F03D100290DD165
S1132B9001214842F0BD604260418446002AEDD0E4
S1132BA00028F3D18E4211D0002EF1D10120F1E79B
S1132BB0002FF7D00120002EECD0E9E70220002CF2
S1132BC0E8D1D4E70220002DE4D1D2E79342EBDC34
S1132BD004DBAC42E8D80020AC42DBD2002ED7D0D4
S1132BE00120D7E7F0B55F4656464D464446F0B45B
S1132BF04502460083B00F1C6D0A360EC40F002E2A
S1132C0006D1002D70D1042101228846924609E0A4
S1132C10FF2E43D08023180400210543ED007F3E9E
S1132C2088468A46381C43007F02C10F7F0A1B0E68
S1132C308B463AD10121002F62D15846604042466A
S1132C4001900A430F2A3FD92C04F018260C3B04A8
S1132C501A0C311C51433F0C2D0C7E436A438146B0
S1132C60080C36182C1CB3187C439A4200D99AE0FD
S1132C7009041D04080C2E18B5011B0C691E8D4196
S1132C80B20EE7181543BC0125432B014BD5012097
S1132C90284001216D088944054344E0002D1ED1DC
S1132CA00820022180468A46BCE7FF2B12D08022EE
S1132CB0100407435846002160404246FF007F3B12
S1132CC001900A430F2ABFD890005B4A84466244AD
S1132CD010688746391C4A1E91410231ADE70C2227
S1132CE0032390469A469DE7281C00F0F5FA7622C5
S1132CF0461F5342B5401E1A00208046824691E783
S1132D00381C00F0E9FA7621431F4A429F40002113
S1132D10131A92E70194514602292CD0032900D1B9
S1132D2080E0012948D04E467F36002E51DD0F2425
S1132D302C40042C00D004352A0103D53F494E46CB
S1132D400D408036FE2E3DDD019B01241C40FF21F9
S1132D500025C805E2072843104303B03CBC904655
S1132D609946A246AB46F0BD0024354DFF21F0E75D
S1132D7051460229D2D1019D01242C40FF21002576
S1132D80E7E75E463D1C0196C6E73D1CC4E7802686
S1132D90F3031D420BD01F4209D11F437A02550A87
S1132DA05C46FF21D5E780225702E41960E71D4302
S1132DB06F027D0AFF21CCE7019B00251940CCB2AC
S1132DC00021C6E70198AD0101246D0AF1B2044067
S1132DD0BFE77E2673424A469F1A1B2F05DD019DDD
S1132DE001242C4000210025B3E749469E312C1CC8
S1132DF08D402E1CFC40751EAE4126430F203040F2
S1132E00042800D00436700105D5019F01243C40FC
S1132E10012100259DE7019AB30101245D0A1440B4
S1132E20002196E78022D00305436C020199650ACC
S1132E3001240C40FF218CE774660000FFFFFFF7BC
S1132E40FFFF7F00F8B5430245004F024C00C20F5C
S1132E50980984462D0E200EC90FBF09FF2851D0B2
S1132E60012671408A4238D02C1A002C00DC86E0FE
S1132E70002822D1002F48D16E1C2C1C6346151C3F
S1132E800F221A40042A00D0043301222A40580198
S1132E9006D5FF2E00D181E0B04D341C2B40013605
S1132EA0F6B2DD08012E62DD6802450AE4B2E405EB
S1132EB02543281CD2071043F8BDFF2D51D0802193
S1132EC0CB041F4301261B2C70DD67462C1CBB1B47
S1132ED0151C580122D4661CD2E72E1A002E76DD6A
S1132EE0002832D0FF2D3CD08024E1040F4301237D
S1132EF01B2E00DCD1E063442C1C58017AD4661CE0
S1132F00151CBDE7002FADD1AAE7013C002C6DD103
S1132F1063462C1CDB1B151C5801DCD59A01960951
S1132F20301C00F0D9F905388640844239DC001B96
S1132F301F231A1A331C311C441C9340E1405E1EAB
S1132F40B3410B43012600249AE7002F00D193E7F5
S1132F50013E002E03D164463B192C1CCDE7FF2D06
S1132F60C5D1151C802263465600FF2488E7002D36
S1132F709CD0002C28D08027F9030D4394E7002C23
S1132F8045D16B1CD8B2012800DC90E06446E61BF6
S1132F90730157D53E1B2C1C0D1CC1E7FF240025D3
S1132FA085E76E4B241A3340661C69E7381C2021E0
S1132FB0E0400C1BA7403E1C771EBE4106436746FB
S1132FC02C1CBB1B151C84E76B025D0A6FE7002EEB
S1132FD079D16C1CE0B201284BDDFF2C00D198E0C4
S1132FE061467F18AE1C7B08151C49E7FF2D00D0F5
S1132FF068E7B6E7671CFF2F36D05848012119400F
S113300003405B08A61C0B433C1C151C38E76642B6
S1133010002D1ED0FF286FD080256246EB041A4392
S1133020944601251B2E09DC62462023F2406446A7
S11330309E1BB440251C6C1EA54115437B1B041C20
S11330400D1C69E7002E0CD1002201260423002464
S11330501DE76446002C55D1461C3B1C041C0D1C6A
S11330600EE72C1C151C5BE780235E00FF24042361
S11330700DE7002D00D08CE06546002D00D1ACE0BA
S1133080002F00D180E07B195C0100D47DE0334F38
S1133090151C3B4002260124F2E6381C2023F04094
S11330A09E1BB7403B1C5F1EBB41034323E7002D1F
S11330B015D16546002D47D1002FC5D03B1C0D1CF2
S11330C001260024DCE67642002D26D16546002D3B
S11330D000D07CE0461C3B1C041C151CD0E6654655
S11330E0002D3FD1002F07D1802100224E001C4B20
S11330F0FF24CCE6FF2894D180203B1C0D1C460005
S1133100FF24BDE6013E002EF4D13B1B0D1C041C24
S113311002E780256E000423B9E6FF2851D08024FD
S11331206146E30419438C4601231B2E09DC20214C
S11331306446F44065468E1BB5402B1C591E8B41DA
S11331402343DB19041CD8E6002F1DD0EB1B5801C8
S11331504AD57B1B01260D1C002491E6FFFFFFFBD3
S1133160FCFFFF03002F00D1FBE68020EB08C40323
S1133170234237D0FF08274234D13B1C0D1C802248
S1133180DB005600FF247BE66346151C0126002461
S113319076E66446002C14D0002F00D1E1E68023AB
S11331A0E608D803311C064203D0F908014200D0D6
S11331B0311C151C8022CB005600FF2460E6FF283A
S11331C0B2D180203B1C151C4600FF2458E6013E6A
S11331D0002EF4D17B19041C8FE63B1C151C012620
S11331E000244DE6151CCAE7002B00D12CE7CCE7E0
S11331F043024200590A00B5130EC20F00207E2B71
S11332000DDD9D2B0CDC802000040143952B0ADC92
S11332109620C31AD9404842002A00D1081C00BD98
S113322002495018FBE7963B9940F4E7FFFFFF7F04
S113323070B5041E3CD0C50F00D04442201C00F0E1
S11332404BF89E21261C0B1A962B0ADC0838844066
S113325061024C0ADBB2DB051C43ED07201C28434A
S113326070BD992B0ADD0522141A311CE140041C9F
S11332701B34A6400A1C711E8E41164305281BDC14
S1133280144C0F2234401640042E00D00434620142
S113329005D59F231B1AFF2B0CD00E4804405E1C3F
S11332A0F1B2E40801290ADD6402640ADBB2D2E760
S11332B0002500230024CEE7411F8E40E0E7002CC8
S11332C0F4D0002B03D08022D0030443ECE7660241
S11332D0740AC0E7FFFFFFFB1C2101231B04984273
S11332E001D3000C10391B0A984201D3000A083993
S11332F01B09984201D30009043902A2105C40184A
S11333007047C046040302020101010100000000ED
S11333100000000080B584B000AF78602B4B1B68C0
S1133320002B42D12A4BFB60FB687A685A60FB6829
S113333001221A70274A2749274BCB588021490478
S11333401943254BD150254B00221A60234B0022F0
S11333505A60224B0022DA60204B00225A611F4B34
S11333600022DA611D4B00225A621C4B0022DA62F1
S11333701A4B00225A63194B194A9A60174B2C2294
S1133380DA61164B15221A62164B164A516F164A09
S11333900A40C02189000A435A67104B08221A6068
S11333A00A4BFA681A60FB680CE0084B1B68FB6068
S11333B0FB687A685A60FB681B780133DAB2FB68F1
S11333C01A70FB68181CBD4604B080BDF4E0FF1FF2
S11333D0E0E0FF1F007004403C1000000080034048
S11333E0EB51000000D00440FFF8FFFE80B584B02C
S11333F000AF786039600B4B9A683B1C0E331A801F
S11334003B1C0E333A1C0E32128801321A803B6880
S11334103A1C0E3212881A800023181CBD4604B0D0
S113342080BDC0460080034080B582B000AF7860A4
S1133430FB1C19703B1C1A80FB1C1B78002B01D051
S1133440822313E0FB1C1B780A4AD35C002B01D0B7
S113345009230BE00849FB1C1B78084AD35C3A1C7F
S113346012880133DB00CB189A600023181CBD4678
S113347002B080BDB866000000800340B46600005E
S113348080B500AF0C4A0C490C4BCB588021C900C5
S113349019430A4BD150084A0749084BCB582021FD
S11334A01943064BD150064B00221A64044B0022E8
S11334B05A64BD4680BDC046007004403810000008
S11334C000A0044080B582B000AFFB1D00221A703A
S11334D0FEF766FD031C191CFB1DFA1D12780A4336
S11334E01A704D4B1B78181C04210322FDF7E8FACF
S11334F0031C191CFB1DFA1D12780A431A70464B53
S11335001B78181C05210022FDF7DAFA031C191C8C
S1133510FB1DFA1D12780A431A703F4B1B78181CC6
S113352006210022FDF7CCFA031C191CFB1DFA1D11
S113353012780A431A70384B1B78181C0721FF2293
S1133540FDF7BEFA031C191CFB1DFA1D12780A4371
S11335501A70314B1B78181C0121C022FDF7B0FAF8
S1133560031C191CFB1DFA1D12780A431A700F2044
S11335700321FEF7DFFF031C191CFB1DFA1D127843
S11335800A431A700B200121FEF7D4FF031C191CF7
S1133590FB1DFA1D12780A431A7004200821FEF755
S11335A0C9FF031C191CFB1DFA1D12780A431A706B
S11335B005206421FEF7BEFF031C191CFB1DFA1D28
S11335C012780A431A7006200421FEF7B3FF031C85
S11335D0191CFB1DFA1D12780A431A7007200021DA
S11335E0FEF7A8FF031C191CFB1DFA1D12780A43E1
S11335F01A70A0231B020120191CFEF79BFF031C59
S1133600191CFB1DFA1D12780A431A70FB1D1B7846
S1133610181CBD4602B080BD04E0FF1F80B584B015
S113362000AF7860104BFB60FB687A689A60FB68B7
S113363001221A71FB684222DA800C4BFA685A6044
S11336400020FFF767FE021CFB681A60FB681B681A
S1133650002B04D1054B00225A60002300E0FB68D4
S1133660181CBD4604B080BDE8E0FF1FF4E0FF1F56
S113367080B584B000AF78600A1CBB1C1A807B68DC
S1133680FB60BB1C1A88FA239B009A4201D986234B
S113369023E0BB1C1B88181CFFF7CAFD031C181C65
S11336A01049FFF79FFA031CBB60B8680E49FFF787
S11336B0B5F9031C002B04D0FB6801225242DA80C6
S11336C006E0B868FFF7BEF9031C9AB2FB68DA801B
S11336D07B68181C00F00AF80023181CBD4604B0CF
S11336E080BDC046AA11834200FF7F4780B586B0E3
S11336F000AF78607B683B613B691A683B1C0E3302
S1133700101C191CFFF772FE3B1C0E331B88002B88
S113371005D13B1C16333A69D2881A800CE03B1C55
S11337200E331B883A69D2885343802212029B18B5
S11337301A0C3B1C16331A803B691A683B1C16335F
S11337401B88101C00211A1CFFF76EFEBD4606B034
S113375080BDC04680B584B000AF78604C4BFB6040
S1133760FB6800225A80FB6800221A81FB68002251
S11337705A60FB6800225A81FB6800221A82FB68A7
S11337800022DA60FB687A685A61424A4149424B36
S1133790CB588021C90019433F4BD1503F4B3F4A7E
S11337A051683F4A0A40802189000A435A603B4BD2
S11337B03A4A91683A4A0A40802189000A439A6049
S11337C0384B384AD278D2B208218A43D2B2DA705E
S11337D0344B344AD278D2B204218A43D2B2DA705A
S11337E0FB6800221A802F4B00229A702D4B002276
S11337F09A712C4B00229A722A4B00225A71254A44
S11338002449294BC958294B0B408021C904194329
S1133810254BD150234B234A1278D2B21F218A431D
S1133820D2B21A701F4B2E225A701E4B1D4A927A26
S1133830D2B2D2B21F218A43D2B203210A43D2B2F6
S1133840D2B29A72174B174AD27AD2B2D2B20221AA
S11338500A43D2B2D2B2DA72124B124AD278D2B23C
S1133860D2B208210A43D2B2D2B2DA700D4B0D4A59
S1133870D278D2B2D2B204210A43D2B2D2B2DA702E
S11338800B4BFA689A60FB68181CBD4604B080BDF7
S113389000E1FF1F00700440341000000090044059
S11338A0FFF8FFFE00A0064004100000FFFFFFF336
S11338B0F4E0FF1F80B500AF01F0E6FCBD4680BD1B
S11338C080B500AFFFBEBD4680BDC04680B500AF29
S11338D0384A3949394BD150394A88235B01002190
S11338E0D150374A374BC0218902D150344A344928
S11338F0354BCB58982189011943334BD150334B65
S11339009B78DBB21A1C0823134007D02F4B2F4A95
S11339109278D2B208210A43D2B29A70284A294B2B
S11339200021D150264A2649294BC958294B194010
S1133930274BD150224B224A1268C02109030A4363
S11339401A601F4A1E49224BC958234B0B40802141
S1133950490419431E4BD150204B06221A701F4BA9
S11339601E4A5278D1B240220A40D2B25A701B4B3E
S11339701A4AD278D1B21F220A40D2B2DA70184B56
S113398080221A70154B00221A71144B00225A71AE
S1133990C046124B9B79DBB21A1C10231340F8D09B
S11339A0C0460E4B9B79DBB21A1C0C231340F8D192
S11339B0BD4680BD00E000E000000000080D0000EE
S11339C000700440441000003810000000D007408C
S11339D004100000FFFFFEFFFFFFFFFC0040064055
S11339E00050064080B500AF324B324A1169324A6A
S11339F00A40E021C9000A431A61304B2F4A527928
S1133A00D2B21F218A43D2B25A712C4B2B4A12795B
S1133A10D2B207218A43D2B21A71294B284A1278AA
S1133A20D2B2D2B273218A43D2B250210A43D2B263
S1133A30D2B21A70224B224A5278D2B2D2B2632145
S1133A408A43D2B240210A43D2B2D2B25A701C4B3A
S1133A501B4A9278D2B219218A43D2B29A70194B76
S1133A6000221A70184B184A116C134A0A401A643F
S1133A70154B154A516C104A0A405A640D4B0D4AB5
S1133A80116D0D4A0A40E021C9000A431A650F4A24
S1133A900E49C1239B00C9580D4B1940C1239B00FB
S1133AA0D1500020FFF7BAFD0020FFF753FE62B6A5
S1133AB0BD4680BD00900440FFF8FFFE00F00740C3
S1133AC000D0074000E0074000A0044000E100E00F
S1133AD0FFFF00FF80B586B000AFF860B9607A6080
S1133AE000237B612CE01D4B1B79DBB21A1C2023C5
S1133AF013400DD1194B1F221A717B69002B24D15D
S1133B00C046164B1B79DBB21A1C20231340F8D095
S1133B107B6901337B61114BDB79DAB2BB681A70C4
S1133B20BB681B780D2B03D1BB680A221A700DE009
S1133B30BB680133BB607B681B685A1E7B681A60D4
S1133B407B681B68002BCED100E0C0467B687A6995
S1133B501A600023181CBD4606B080BD00A00640B4
S1133B6080B586B000AFF860B9607A6000237B61ED
S1133B7025E0C046184B1B79DBB2DBB25BB2002BED
S1133B80F8DABB681B780A2B0AD1134B0D22DA71C1
S1133B90C046114B1B79DBB2DBB25BB2002BF8DA07
S1133BA00D4BBA681278DA71BB680133BB607B696C
S1133BB001337B617B681B685A1E7B681A607B68D3
S1133BC01B68002BD5D17B687A691A600023181C06
S1133BD0BD4606B080BDC04600A0064080B582B098
S1133BE000AF78600023181CBD4602B080BDC046FB
S1133BF080B500AF054A064BD31A054A101C0021B4
S1133C001A1C01F0F7FBBD4680BDC046FCE2FF1F55
S1133C10D8E0FF1F02F0DCFCFFF758FEFFF7E8FFD7
S1133C2002F00AFD02F088FC02F0E0FC044B0020E4
S1133C30191C01F01FFB031C181C01F0BFFBC0463C
S1133C4018E1FF1F80B582B000AF7860FEE7C04680
S1133C5080B582B000AF0A1CBB1D011C19807B1DFE
S1133C601A70BB1D19887B1D1A78074B5200D35A52
S1133C701A1C131C5B009B18CB189B089BB2181CC6
S1133C80BD4602B080BDC04680E1FF1F80B584B050
S1133C9000AF78603B1C0F3300221A707B6800224F
S1133CA01A607B6800225A607B681B68C022120479
S1133CB01A437B681A603B1C0F331B78181CBD46E3
S1133CC004B080BD80B584B000AF78603B1C0F3376
S1133CD000221A707B681B688022191C91430A1CFD
S1133CE07B681A607B681A680E4B1A407B681A60FE
S1133CF03B1C0E330C4A52791A707B681A683B1CC1
S1133D000E331B78013B1902F8235B010B401A4365
S1133D107B681A603B1C0F331B78181CBD4604B02B
S1133D2080BDC046FFE0FFFF54E1FF1F80B584B0B3
S1133D3000AF786039603B1C0F3300221A703B6877
S1133D401B688022191C91430A1C3B681A607B681B
S1133D505B7B012B1FD1174B5B889AB24023134026
S1133D609BB2002B06D03B681B6820221A433B6899
S1133D701A6007E03B681B682022191C91430A1C47
S1133D803B681A603B1C0F333A1C0F321278012136
S1133D900A431A7007E03B681B682022191C9143F0
S1133DA00A1C3B681A603B1C0F331B78181CBD4669
S1133DB004B080BD54E1FF1F80B586B000AFF86049
S1133DC0B9607A603B1C163300221A70854B5B88FD
S1133DD09AB2802313409BB2002B07D1814B5B889E
S1133DE09AB2402313409BB2002B03D0BB6800223D
S1133DF09A805FE03B1C173300221A7055E03B1C8D
S1133E0017331A78784B9200D3581A68FB689A4291
S1133E1044D13B1C17331B78DB08DBB2734AD35CF9
S1133E201A1C3B1C1733197807230B40DA40012373
S1133E30134033D13B1C17331A786B4B9200D25882
S1133E403B1C1533127A1A70BB689B889BB23A1CD0
S1133E50153212780121081C9040021C92B21340C2
S1133E609BB2002B1AD07B681B688022191C9143DB
S1133E700A1C7B681A60BB689B889BB29BB23A1C85
S1133E80153212780121081C9040021C92B2D243D0
S1133E9092B213409BB29AB2BB689A803B1C173310
S1133EA03A1C1732127801321A703B1C17331B78F4
S1133EB0012BA4D93B1C173300221A7084E03B1C4D
S1133EC017331A78484B9200D3581A68FB689A4201
S1133ED000D072E0434B5B889AB2802313409BB2BC
S1133EE0002B07D13F4B5B889AB2402313409BB20F
S1133EF0002B21D03B4B9B7ADBB23A1C1732127851
S1133F009A425AD13B1C17331A78374B9200D25835
S1133F103B1C1533127A1A70BB689B889AB23B1CFF
S1133F2015331B780121081C9840031C9BB21343D2
S1133F309AB2BB689A8040E03B1C17331B78DB08BD
S1133F40DBB22A4AD35C1A1C3B1C173319780723AB
S1133F500B40DA40012313402FD03B1C17331A784F
S1133F60214B9200D2583B1C1533127A1A70BB684D
S1133F709B889BB23A1C153212780121081C904090
S1133F80021C92B213409BB2002B16D17B681B68B3
S1133F908022191C91430A1C7B681A60BB689B88A9
S1133FA09AB23B1C15331B780121081C9840031C52
S1133FB09BB213439AB2BB689A803B1C17333A1CDA
S1133FC01732127801321A703B1C17331B78012BFD
S1133FD000D874E73B1C16331B78181CBD4606B08A
S1133FE080BDC04654E1FF1FAC670000ECE1FF1F39
S1133FF080B58EB000AFF860B9607A603B1C37338F
S113400000221A70FB681A68E0231B0213405B0B42
S1134010DAB23B1C10331A70FB681A68E023DB0227
S113402013401B0CDAB23B1C10335A70CC4B5B8828
S11340309AB2802313409BB2002B11D03B1C28332F
S11340408022D2001A803B1C273308221A703B1CA2
S1134050263307221A703B1C353300221A7010E0F5
S11340603B1C28338022D2001A803B1C27330822B1
S11340701A703B1C263307221A703B1C353300226E
S11340801A703B1C1C33012252425A803B1C1833C9
S1134090012252425A803B1C2B3300221A70FB68C7
S11340A0B04A9A60FB681B688022191C91430A1C61
S11340B0FB681A60FB681B684022191C91430A1CA8
S11340C0FB681A60FB681B681022191C91430A1CC8
S11340D0FB681A60FB681B6880221A43FB681A603D
S11340E03B1C22337A6892881A803B1C34333A1C76
S11340F02732127852081A703B1C2F3300221A7090
S11341003B1C1433012252425A803B1C25330022AB
S11341101A703B1C2F333A1C2F32127801321A705A
S11341203B1C333301221A703B1C2C3300221A80AF
S11341303B1C363300221A7082E03B1C22331A885F
S11341403B1C36331B78DA400123134000D170E066
S1134150FB681A68844B1A40FB681A60FB681A688B
S11341603B1C35331B785B031B041B0C1A43FB6895
S11341701A60FB681A687D4B1A40FB681A60FB687A
S11341801A683B1C34331B781904E023DB020B4010
S11341901A43FB681A60FB685B681B011A09FB6819
S11341A05A60FB685A683B1C36331B781B071A435A
S11341B0FB685A60FB685B688022D2031A43FB6881
S11341C05A60FB681A6804231340FAD0FB681B6822
S11341D004221A43FB681A60C046C046FB685A684A
S11341E03B1C30331A803A1C30323B1C2833128873
S11341F01B889A4203D23B1C333300221A703B1CA7
S11342002C331B88002B06D13B1C2C333A1C303238
S113421012881A800DE03B1C2C331B885B0899B272
S11342203B1C30331B885B089AB23B1C2C338A1826
S11342301A803B1C36333A1C3632127801321A701B
S11342403B1C36331B780F2B00D876E73A1C2C32F4
S11342503B1C283312881B889A420AD93B1C3033F2
S1134260391C2C313A1C2832098812888A1A1A807F
S113427009E03B1C3033391C28313A1C2C320988A4
S113428012888A1A1A803B1C33331B78012B2ED1D7
S11342903A1C2C323B1C283312881B889A420CD8B7
S11342A03B1C25331B78002B21D03B1C14335B882B
S11342B03A1C303212889A4219D83B1C14333A1CE7
S11342C0343212785A703B1C14333A1C353212784B
S11342D01A703B1C14333A1C303212885A803B1C2F
S11342E025333A1C2532127801321A701EE03B1C29
S11342F014335B883A1C303212889A4216D83B1C1D
S113430025331B78002B11D13B1C14333A1C343257
S113431012785A703B1C14333A1C353212781A70D6
S11343203B1C14333A1C303212885A803B1C333302
S11343301B78012B1CD13B1C27331B785B08DBB299
S11343401A1C3B1C2F331B78111CD9400B1CD9B2EF
S11343503B1C34333A1C343212788A181A701BE02E
S113436054E1FF1F0000FFFFFF1FFFFFFFFFF8FFE7
S11343703B1C27331B785B08DBB21A1C3B1C2F3316
S11343801B78111CD9400B1CDAB23B1C3433391C8A
S1134390343109788A1A1A703B1C27331B785B085E
S11343A0DBB21A1C3B1C2F331B78111CD9400B1C8D
S11343B0002B00D0ADE63B1C1C335A883B1C143345
S11343C05B889A421ED33B1C25331B78002B19D0E3
S11343D03B1C14331A783B1C1C331A703B1C1433DB
S11343E05A783B1C1C335A703B1C14335A883B1CB0
S11343F01C335A803B1C2B333A1C2B32127801326B
S11344001A701EE03B1C18335A883B1C14335B881B
S11344109A4216D33B1C2B331B78002B11D13B1C27
S113442014331A783B1C18331A703B1C14335A7813
S11344303B1C18335A703B1C14335A883B1C1833EA
S11344405A803B1C35333A1C3532127801321A70CB
S11344503B1C35331A783B1C26331B7801339A42B4
S113446000D242E63B1C2B331B78002B05D07B6823
S11344703A1C28321288DA8038E03B1C18331A7848
S11344803B1C1C331A703B1C18335A783B1C1C33DE
S11344905A703B1C2F3300221A703B1C18335A8865
S11344A03B1C3033391C283109888A1A1A8006E0EB
S11344B03B1C2F333A1C2F32127801321A703B1CEA
S11344C030331A883B1C2F331B78111C19410B1CE9
S11344D0002BEDD13B1C2F331B78013BDBB20122B7
S11344E0111C99400B1C9AB27B68DA80FB681B682C
S11344F08022191C91430A1CFB681A60FB681A6825
S1134500284B1A40FB681A60FB681A683B1C1C3372
S11345101B785B031B041B0C1A43FB681A60FB68C3
S11345201A68214B1A40FB681A60FB681A683B1C26
S11345301C335B781904E023DB020B401A43FB684D
S11345401A601A4B5B889AB2802313409BB2002BEB
S113455009D03B1C1C335A883B1C28331B88D318B6
S11345609AB2134B1A803B1C10331A783B1C1C3331
S11345701B789A4207D13B1C10335A783B1C1C33DE
S11345805B789A4207D03B1C37333A1C3732127897
S113459010210A431A703B1C37331B78181CBD4684
S11345A00EB080BDFF1FFFFFFFFFF8FF54E1FF1FA8
S11345B038E2FF1F80B584B000AF786039603B1CDF
S11345C00F3300221A703B681B688022191C914328
S11345D00A1C3B681A603B681B684022191C914303
S11345E00A1C3B681A603B68354A9A607B685B7BAF
S11345F0012B5ED13B1C0E33324A927A1A703B1C5B
S11346000E331B78012B54D83B1C0E331A782E4BD7
S11346109200D3581A687B689A424AD13B681B6857
S11346201022191C91430A1C3B681A603B685B68A2
S11346301B011A093B685A603B685A683B1C0E33DD
S11346401978214B8900CB581B7A1B071A433B6806
S11346505A603B681B6880221A433B681A603B68B7
S11346605B688022D2031A433B685A603B681A682D
S113467004231340FAD0C046C0463B685A683B1C2A
S11346800C331A803B1C0B330E4AD27A1A703B1C33
S11346900C331A883B1C0B331B78D3181A043B6861
S11346A09A603B1C0F333A1C0F32127802210A43E2
S11346B01A703B1C0F331B78181CBD4604B080BD18
S11346C00000FFFF54E1FF1FAC67000080B588B015
S11346D000AFF860B9607A603B1C1F3300221A7087
S11346E0634BBB61FB681B688022181C9043021C4F
S11346F0FB681A605F4B1B7BDAB203231340DBB207
S1134700002B0ED1FB681B6810221A43FB681A6049
S11347103B1C1F333A1C1F32127808210A431A70BB
S11347200FE0FB681B681022191C91430A1CFB68EC
S11347301A603B1C1F333A1C1F32127804210A43AF
S11347401A70FB681B6840221A43FB681A60FB68F6
S11347501B68802252051A43FB681A60BA69C02399
S11347605B00D2587B681B7B191C1F230B40012163
S1134770081C9840031C111C1943BA69C0235B0030
S1134780D150BB691A687B681B7B191C1F230B4023
S11347900121081C9840031C1A43BB691A60BB68BA
S11347A000221A70BB6800229A70324B5B889AB25E
S11347B0402313409BB2002B52D07B685B7B012BC0
S11347C04ED1FB689B681B0C1A042B4B9A4217D0E2
S11347D0FB685B681B011A09FB685A603B1C1733B2
S11347E0244A927A1A70FB685A683B1C173319786A
S11347F0224B8900CB581B7A1B071A43FB685A606B
S1134800FB681B6810221A43FB681A60FB681A686D
S11348101B4B1A40FB681A60FB681B6840221A4352
S1134820FB681A60FB681B6880221A43FB681A60E5
S11348303B1C1F333A1C1F32127801210A431A70A1
S11348403B1C1F333A1C1F32127804218A431A700E
S11348503B1C1F333A1C1F32127808218A431A70FA
S11348603B1C1F331B78181CBD4608B080BDC046D6
S113487000E100E054E1FF1F0000FFFFAC6700000F
S1134880FFFFFFEF80B588B000AF0A1CFB1D011CC1
S11348901970BB1D1A703B1C1F3300221A70FB1DBC
S11348A01A78D04B9200D358BB61BB691B687B61FB
S11348B07B695B683B61BB695B68FB60BB1D1B7804
S11348C0052B1BD1FB689B78DBB2012B00D082E166
S11348D0FB6800221A70FB6802229A703B695B68CD
S11348E08022D2031A433B695A603B1C1F333A1C93
S11348F01F32127804210A431A706CE1BB1D1B7825
S1134900012B6BD13B69181CFFF7C0F9031C191C60
S11349103B1C1F333A1C1F3212780A431A703B693E
S1134920181CFFF7CFF9031C191C3B1C1F333A1C3E
S11349301F3212780A431A707A693B69101C191CD9
S1134940FFF7F4F9031C191C3B1C1F333A1C1F32DC
S113495012780A431A707969FA683B69081C111CB9
S11349601A1CFFF729FA031C191C3B1C1F333A1CA1
S11349701F3212780A431A7039697A69FB68081C75
S1134980111C1A1CFFF734FB031C191C3B1C1F339E
S11349903A1C1F3212780A431A707A693B69101C58
S11349A0191CFFF707FE031C191C3B1C1F333A1C80
S11349B01F3212780A431A703969FA687B69081C35
S11349C0111C1A1CFFF782FE031C191C3B1C1F330D
S11349D03A1C1F3212780A431A70FCE0BB1D1B7884
S11349E0032B3ED13B69181CFFF76CF9031C191CFF
S11349F03B1C1F333A1C1F3212780A431A70396960
S1134A007A69FB68081C111C1A1CFFF7F1FA031CD5
S1134A10191C3B1C1F333A1C1F3212780A431A70AC
S1134A207A693B69101C191CFFF7C4FD031C191C8F
S1134A303B1C1F333A1C1F3212780A431A7039691F
S1134A40FA687B69081C111C1A1CFFF73FFE031C43
S1134A50191C3B1C1F333A1C1F3212780A431A706C
S1134A60B9E0BB1D1B78062B2FD17A693B69101C5A
S1134A70191CFFF75BF9031C191C3B1C1F333A1C60
S1134A801F3212780A431A707A693B69101C191C88
S1134A90FFF790FD031C191C3B1C1F333A1C1F32EB
S1134AA012780A431A703969FA687B69081C111C68
S1134AB01A1CFFF70BFE031C191C3B1C1F333A1C6A
S1134AC01F3212780A431A7085E0BB1D1B78072B2E
S1134AD020D17A693B69101C191CFFF727F9031CC4
S1134AE0191C3B1C1F333A1C1F3212780A431A70DC
S1134AF03969FA687B69081C111C1A1CFFF7E6FD6A
S1134B00031C191C3B1C1F333A1C1F3212780A4326
S1134B101A7060E0BB1D1B78082B31D139697A69A2
S1134B20FB68081C111C1A1CFFF762FA031C191CF1
S1134B303B1C1F333A1C1F3212780A431A707A69DD
S1134B403B69101C191CFFF735FD031C191C3B1C89
S1134B501F333A1C1F3212780A431A703969FA68F3
S1134B607B69081C111C1A1CFFF7B0FD031C191CDF
S1134B703B1C1F333A1C1F3212780A431A702AE076
S1134B80BB1D1B78022B11D17969FA683B69081C9B
S1134B90111C1A1CFFF710F9031C191C3B1C1F33B2
S1134BA03A1C1F3212780A431A7014E0BB1D1B789A
S1134BB0042B10D13969FA687B69081C111C1A1C72
S1134BC0FFF784FD031C191C3B1C1F333A1C1F32C6
S1134BD012780A431A703B1C1F331B78181CBD46FD
S1134BE008B080BDAC67000080B584B000AF7860C9
S1134BF039603B689A687B681B7A5B00D3181A8813
S1134C00294B1A80284B1B881A1C284B1B882849BF
S1134C104B4328495B185B0C9BB22749CB1A9A4239
S1134C2004DD3B1C0F3306221A7035E01E4B1B8833
S1134C301A1C1E4B1B881E494B431E495B181B0C38
S1134C409BB21D49CB1A9A4204DD3B1C0F3304224C
S1134C501A7021E0154B1B88184A53435B0C9AB217
S1134C60114B1B889A4204D93B1C0F3307221A703C
S1134C7012E00E4B1B88114A53431B0C9AB20A4B89
S1134C801B889A4204D93B1C0F3303221A7003E099
S1134C903B1C0F3300221A703B1C0F331B78181C6B
S1134CA0BD4604B080BDC04638E2FF1F24E1FF1FAB
S1134CB0CDCCFFFFCDCC3233FFFF000033330000F7
S1134CC080B586B000AFF860B9607A601A1CFB1C2E
S1134CD01A70394B1B7BDAB203231340DBB2012B6E
S1134CE028D1FB681B78DBB2012B1ED0FB68FA1CB1
S1134CF012785A707B685B681B011A097B685A60DA
S1134D007B685A68FB1C1B781B071A437B685A6034
S1134D10FB6800221A70FB6802229A707B685B6849
S1134D208022D2031A437B685A603B1C173301224A
S1134D301A703AE0FB68FA1C12785A70FB68012278
S1134D409A707B685B681B011A097B685A607B68F0
S1134D505A68FB1C1B781B071A437B685A60164B66
S1134D601B7BDAB203231340DBB2002B19D1FB689F
S1134D701B78DBB2022B0CD13B1C173305221A70B3
S1134D807B681B688022191C91430A1C7B681A608B
S1134D9003E03B1C173301221A70FB6800221A70CF
S1134DA003E03B1C173301221A703B1C17331B789A
S1134DB0181CBD4606B080BD54E1FF1F90B589B0F4
S1134DC000AF0A1CFB1D011C1970BB1D1A70FB1DD2
S1134DD01A786F4B9200D358BB61BB691B687B6127
S1134DE07B695B683B61BB695B68FB603B1C0B33A5
S1134DF0BA69127A1A70BB1D1B78012B21D13B6949
S1134E001A688023134005D13B691B6880221A432A
S1134E103B691A60FB689B78DBB2002B0CD13C1C0D
S1134E201F34F86879693A693B1C0B331B78FFF728
S1134E3047FF031C2370A3E03B1C1F3301221A709D
S1134E409EE0BB1D1B78022B34D13B691A6880237A
S1134E50134005D13B691B6880221A433B691A60E1
S1134E60FB689B78DBB2002B1FD1FB681B78DBB29D
S1134E70002B0DD0FB6803221A703C1C1F34BA6946
S1134E807B69101C191CFFF7AFFE031C237077E02D
S1134E903C1C1F34F86879693A693B1C0B331B7856
S1134EA0FFF70EFF031C23706AE03B1C1F33012233
S1134EB01A7065E0BB1D1B78042B26D13B1C1E33E6
S1134EC0FA1D12781A703B1C1E331B78002B07D175
S1134ED03B1C1E333A1C1E32127801321A7003E056
S1134EE03B1C1E3300221A703B1C1E331A78284BBD
S1134EF09200D3581A687B699A42E4D13B1C1F3351
S1134F003A1C1E3212781A703AE0BB1D1B78032B30
S1134F1024D13C1C1F34FB1D1B78181C0821FFF7EF
S1134F20B1FC031C23703B1C1F331A78202313404D
S1134F3004D03B1C1F3306221A7021E03B1C1F3394
S1134F401A781023134004D03B1C1F3302221A701A
S1134F5016E03B1C1F3300221A7011E0BB1D1B78A6
S1134F60052B0DD13C1C1F34FB1D1B78181C022182
S1134F70FFF788FC031C23703B1C1F3300221A70AC
S1134F803B1C1F331B78181CBD4609B090BDC0469E
S1134F90AC67000090B585B000AF634B5B68BB6045
S1134FA0624B5B889AB2402313409BB2002B25D0FE
S1134FB0BB681B68802212061A43BB681A60BB6870
S1134FC01B68802252051A43BB681A60BB681B68C1
S1134FD04022191C91430A1CBB681A60BC1D0120A5
S1134FE0FDF7C8FB031C2380BB1D1B884022934391
S1134FF09BB20120191CFDF79DFA8EE0BB681B686B
S113500004221A43BB681A60494B1B78DBB2002B9D
S113501000D07FE0BB681B681022191C91430A1C56
S1135020BB681A60BB685B681A0F3B1C0F331A70AD
S11350303D4B9A683B1C0F331B785B00D218BB684E
S11350405B689BB21380BB1D394A92881A803B1C53
S11350500E3312221A703B1C0F331B780E2B07D809
S11350603B1C0F333A1C0F32127801321A7003E0E2
S11350703B1C0F3300221A703B1C0E333A1C0E32B9
S11350801278013A1A703B1C0F331B780122111C51
S113509099400B1C9BB2BA1D128813409BB2002B83
S11350A004D13B1C0E331B78002BD4D1204B5B78EE
S11350B0DBB23A1C0F3212789A4214D11C4B0122F3
S11350C01A701B4B00229A70184B1B7BDAB2032315
S11350D01340DBB2002B20D1BB681B6810221A439B
S11350E0BB681A6019E0BB685B681B011A09BB68DE
S11350F05A60BB685A683B1C0F331B781B071A4362
S1135100BB685A60BB685B688022D2031A43BB68E1
S11351105A6002E0064B02221A70064B01221A70F2
S1135120BD4605B090BDC0467C67000054E1FF1F3A
S11351301CE1FF1F28E2FF1F90B587B000AF021CDF
S1135140FB1D1A703B1C173300221A703B1C1633CC
S113515000221A700DE03B1C16331B783A1C0C32EB
S11351600021D1543B1C16333A1C163212780132FA
S11351701A703B1C16331B78002BECD03B1C1633E7
S113518000221A7068E03B1C16331B78DB08DBB284
S11351903A1C0C32D35C1A1C3B1C163319780723B7
S11351A00B40DA40012313404FD13B1C16331A78CD
S11351B02F4B9200D3581B683B613B691B683A1C18
S11351C016321178FA1D1278081C111C9847031C1A
S11351D0191C3B1C17333A1C173212780A431A70F5
S11351E03B1C15333A1C163212781A7028E03B1C0B
S11351F015331A781E4B9200D3581A683B699A42A9
S113520017D13B1C15331B78DB08DBB21A1C391C85
S11352100C31C95C3B1C153318780723034001206B
S1135220041C9C40231CDBB20B43D9B23B1C0C3343
S113523099543B1C15333A1C1532127801321A70FA
S11352403B1C15331B78012BD1D93B1C16333A1C5C
S11352501632127801321A703B1C16331B78012B5C
S113526091D93B1C17331B78181CBD4607B090BD61
S1135270AC67000080B500AFFEF7B4FBFEF722F97F
S1135280FCF7C0FFFCE7C04680B500AFBD4680BD5B
S113529080B582B000AF021CFB1D1A700A4B1B784C
S11352A0DAB201231340DBB2002B01D1064B1B7889
S11352B0054B1B78044B1B7800200021FDF73AF9BD
S11352C0C046BD4602B080BD54E1FF1F80B500AFAB
S11352D0FEF7D6F8BD4680BD80B582B000AF3B1D59
S11352E01870274B9B787F229343DBB2002B42D06C
S11352F0234B1B797F229343DBB2002B3BD0204B03
S11353001A7940231340DBB2002B34D11C4BDB78D9
S11353101A1C1C4B1B689A4205DD1B4B1B685A1D4B
S1135320194B1A6004E0184B1B685A1F164B1A607D
S1135330154B1B68FF2B02DD134BFF221A60124B27
S11353401B68002B02DA104B00221A600F4B5A68BC
S11353500D4B1B689BB2101C191CFEF789F90A4BF4
S11353601B680B4A101C191C00F014F8044BDB7862
S11353701A1C044B1A60C046BD4602B080BDC0462C
S113538004E0FF1F2CE1FF1F28E1FF1FF4E0FF1FD3
S11353906C6600000FB41FB506AB04CB002200926C
S11353A00449069A0448039300F038F905B008BC90
S11353B004B0184750E0FF1F8B62000038B5051C8D
S11353C001F0F8F801F0DCF8084C2368002B02D057
S11353D0984700202060064C2168002902D08847A5
S11353E000222260281CFEF72DFC38BD30E1FF1F8F
S11353F034E1FF1F10B5041C00F002F8201C10BD9E
S113540030B5C9B2031C1F2A31D9444203232340B7
S113541005D0D21AC51801700130A842FBD1002969
S113542005D00D060C042C430B02214319435409E7
S1135430031C002C0ED0251C013D19605960996095
S1135440D960196159619961D9612033002DF3D173
S11354506301C318D006400F07D0041C1D1C013C77
S113546002C5002CFBD180001B18032422409D1888
S1135470002A03D019700133AB42FBD130BD0000C8
S1135480F0B589B001901F1C0EAB039107920290F6
S11354901A78081C01990FAC01380026049225786B
S11354A00670B14217D1119BB34214D1049B002B57
S11354B001D06F2D2FD0642D02D0692D00D0A8E02B
S11354C0022F02D1039802389FE0012F00D0A0E000
S11354D00398023894E0692D0ED004D8582D16D0C4
S11354E0642D1CD108E0752D04D0782D0FD06F2DBC
S11354F015D110E0002712E0019A002A0FDA802467
S11355002606B2420DD051420191029109E00027D2
S11355103E1C102407E000273E1C082403E000265C
S113552000E001260A240090002006900298211C25
S1135530FDF7E2F902980591211CFDF799F9059A06
S11355400290092A01D8303205E0059A3732782DC5
S113555001D1059A57320098069B02990138D2B2BC
S1135560009002700133002901D00693DEE7011C8C
S1135570082C0BD10498002808D0302A06D00B1C24
S1135580013B302200931A70069B023307980228CD
S11355900FD1002E01D1002F02D0109901391091A2
S11355A0109A1192102C04D10498002801D0023AC8
S11355B0119203990098119A091A8918164A91426E
S11355C026DC0099CA181199121A8A4203DA0138A2
S11355D030220270F5E7102C0AD1049C002C07D06D
S11355E0019B002B04D0421E30210238157001703B
S11355F0002E02D001382D2108E0012F02D10138FC
S11356002B2103E0022F04D101382021017000E096
S1135610002009B0F0BDC046FD010000F0B5B64C55
S11356201E1CA5446B460A900B913E33202100209A
S1135630197008920590089A1578002D00D1F9E1A7
S11356400898252100F03CFF0C90002811D10898FF
S113565000F04EFF0599021C08180590002A00D19D
S1135660E8E10B9808990A9EB047002800D0E1E1D0
S1135670CEE00C9F089C05993A1B8B180593002AD1
S11356800CD10C980C9A437801321D1E252D0CD098
S113569000270121BC460D97069119E00B98089943
S11356A00A9DA8470028ECD1B2E00C9A00210232EE
S11356B001240892079106943DE02B2B0BDC202B50
S11356C010D0232B00D0BAE001239C46013213787A
S11356D02B2BF2D1ABE12D2B00D1A5E1302B00D047
S11356E0ADE004E00D9D012DF0D00220A0E1069C68
S11356F0002CEBD002200690E8E737680436FB4321
S1135700D80F937802321C1C683C0021042C00D86A
S1135710C1E0DDB26E2B00D0C7E0013208926E2DDD
S113572000D149E100D900E1632D00D159E107D846
S1135730252D00D0F3E010AC25700996012619E060
S1135740642D00D0EEE0321D09923068032900D0A8
S1135750F6E007996646009601950291039790A991
S1135760069A0D9BFFF78CFE041E00D13FE1634FA8
S11357706F443E1A069800283CD02023022800D10A
S113578030236F463E373B7022782B2A04D02D2AD3
S113579002D0371C202A0BD1371C302B08D10B9890
S11357A0211C01220A9B9847002831D00134771E1E
S11357B0069902290ED1612D01D0412D0AD1012F64
S11357C026DD0B98211C02220A9DA84700281FD021
S11357D0023F0234351C079EB54209DA69460B982C
S11357E03E3101220A9B9847002811D00135F2E787
S11357F03E1C00E0351C002E03D10698002819D168
S113580015E0211C0B98321C0A9CA0470028F4D1F7
S11358100122554205950DE169463F3120240B983C
S113582001220A9F0C70B8470028F1D00135079F68
S1135830BD42F1DB059A53190593099EFBE6171C3B
S11358402A2B00D0E1E0341D36680796002E03DAD7
S113585073420025079306957B780132261C284F56
S11358600798B84200DDC2E02E2B11D153782A2BC1
S113587000D142E7013200271C1C303C092C05D81A
S11358800A214F4301323F191378F5E701203AE723
S11358900027381C37E71B4D295D1B4D2C57002C66
S11358A000D136E75378013233E76E2B0ADC632BE1
S11358B02CD002DC582B30D115E0642B13D0692B8B
S11358C02BD110E0732B23D009DC6F2B0BD0702B62
S11358D023D101237825082703219C461DE7752B36
S11358E001D0782B19D1002815D0069C022C00D0A9
S11358F013E70123069310E7BCFDFFFF3F020000FE
S1135900FD010000BA670000B5670000002804D15B
S1135910002902D101E70127FFE6FF25FDE6582D06
S113592065D116E0692D62D10DE7732D23D002D81D
S11359306F2D5CD10DE0752D0BD0782D57D108E07B
S1135940022901D100B204E7012900D001E740B2E5
S1135950FFE6341D09943068032906D0022901D1D9
S113596080B202E0012900D1C0B2079E62460092D3
S113597001950296F2E63468311D0991002C00D19C
S11359802F4C6346002B07D026780134002800D121
S1135990F0E6BE4237DCEDE6002808D0201C614664
S11359A03A1C00F0BCFD00282DD0061BE2E6201CAA
S11359B000F09EFD061CDDE6351D099534680229BC
S11359C007D003290AD0002900D036E705982060C3
S11359D033E76F461421CB5B23802EE7059A2260C0
S11359E02BE73368301D10AC09902370A6E60C98A1
S11359F000F07EFD059E021C35180595002819D07F
S1135A000B980C992FE63E1CB4E600240794191C4D
S1135A103039092900D922E7079D0A236B43013253
S1135A20581807901378F2E7002706974EE60120EE
S1135A300D904BE605989124A400A544F0BDC04602
S1135A40B4670000F0B50027A9B0059006910F9344
S1135A5009920D970B9708970A970C970497099D3D
S1135A602C78002C00D103E3201C00F047FB002815
S1135A7022D0099A01321078099200F03FFB0028E5
S1135A80F7D1002F00D0F1E2002106980A1C059CF2
S1135A90A047061C00F032FB002803D0049B01330E
S1135AA00493F1E7701C04D12E98002800D1DFE2A2
S1135AB001270698311CABE2252C1BD0002F19D1ED
S1135AC0391C06983A1C059EB047C1B2A1420AD0BF
S1135AD006980122B0472E9F002F00D1C8E2099DED
S1135AE001350995C2E2049B0999013301310493FC
S1135AF00991B4E71EAC201C00212822FFF77AFC90
S1135B000998A54E45786660281E25280CD1211CCD
S1135B1014A82822E57000F0E2FC099C002002345D
S1135B20099407900E90D7E02A2D02D0099C0134E5
S1135B3005E0012309992370099C88780234021C2A
S1135B40303A092A1FD800260A256E43303801341A
S1135B5036182078031C303B092BF5D91EAD6E6036
S1135B60002E0ED101235942E97014A8291C2822C1
S1135B70013400F0B4FC2B780994FF2507960E96A7
S1135B809DE001266E701EA9682804D06C280CD1F3
S1135B900320887007E0637802228A70682B02D1A0
S1135BA001258D706419607801341EABD8705838A3
S1135BB0202871D8FCF752FE7270702B70707070D0
S1135BC07070701572707070707270707070727224
S1135BD01170701970727070720003269E707821B3
S1135BE05BE09A78002A59D056E09978002901D0D0
S1135BF0FF20D87000231EAAD518FF2601332E7269
S1135C00202BF8D1C121FE205172107346E09D78FB
S1135C10002D01D0FF26DE7063785E2B02D00134A4
S1135C20002102E0A378012102345D2B07D11EABD1
S1135C302020D8746378013401E0E3780334002B26
S1135C4000D139E25D2B00D139E2DDB2EA081EAEA3
S1135C500720B218184001258540107A2E1C65785B
S1135C60064316722D2D14D1A278002A11D05D2A74
S1135C700FD001339342E0DCDEB2F0081EAD2818E9
S1135C8007251D400126AE40351C067A35430572B2
S1135C90EFE701342B1CD2E7FF21D9701EAE311C73
S1135CA0282214A800F01BFC6A467A327178107816
S1135CB033780E910790F578013476680994002BB7
S1135CC006D1252D08D00F9A146804320F9200E0F3
S1135CD000246E2D01D1ADE10024002F01D0012755
S1135CE00AE00698391C0222059B9847002803D035
S1135CF02E9F002FF3D1BBE1692D25D012D85B2D47
S1135D0000D115E106D8252D00D1D3E0582D00D0BF
S1135D10AEE13EE0632D00D17CE0642D00D0A7E12C
S1135D200A2012E0732D00D1E6E007D86E2D00D1D1
S1135D3080E16F2D00D09BE1082030E0752D2DD03F
S1135D40782D00D094E124E00020002F48D112A93E
S1135D5013AA11AD01910292311C0095059A069B7C
S1135D6000F0C7FA119E002E05D12E98002828D1E4
S1135D7001240B947CE1049B129D9E190496002D32
S1135D8005D080210A06904201D043422AE0031C38
S1135D9028E0102003E0C046FFFFFF7F0A20002F09
S1135DA01ED111AB13A912AD00930291069B311CB5
S1135DB00195059A00F09DFA119E031C002E03D153
S1135DC0D3E70127331C0DE0049A129D9019049027
S1135DD0002D07D080210E06B34203D05B4201E0C0
S1135DE001270023002C11D0079E032E09D8301C54
S1135DF0FCF734FD06020406237002E0238000E071
S1135E0023600C9D794279416A180C920A980130FA
S1135E100A906EE00E98002800D10126002C33D0A1
S1135E2000211191A6198F4200D01FE1B44219D06C
S1135E302E9A002A04D01198002811DA01230D9318
S1135E40002106980A1C059DA8470890013009D036
S1135E5008AB1D7825701199013401311191E5E7E2
S1135E6000240D94119E2E9A002E00D1A0E0002A49
S1135E7003D00D99002900D1F8E0049A0C9C9019E4
S1135E80013404900C94D1E01194013E701C0CD0A8
S1135E90002106980A1C059B9847013E0890013092
S1135EA003D0119D01351195F0E7119E002E00D00D
S1135EB0BCE0DDE0002F00D0D5E0002106980A1CEC
S1135EC0059EB047051C00F019F9002803D0049C76
S1135ED001340494F1E7252D08D001220698291CE9
S1135EE0B0472E9A002A00D142E7BCE00499013160
S1135EF0049101240B94B2E501230B93002F17D1D5
S1135F000698391C3A1C059DA847051C00F0F6F8B4
S1135F10002806D0049B00210133049306980A1C30
S1135F20F1E701220698291C059B984701220B9250
S1135F30002C49D0002111918F4200D096E0013EFF
S1135F40351C711C24D02E9A002A04D0119B002BDE
S1135F501CDC01200D90002106980A1C059B984723
S1135F600890013014D008A90B7814A8DA08821814
S1135F70089807210140127A01208840104207D076
S1135F802370119D013401351195D8E700260D9633
S1135F90119B08AE3178002B05D02E9800280AD02A
S1135FA00D9A002A07D101220698059FB8472E9A18
S1135FB0002A5DD05AE00020049E20700C9CF31847
S1135FC0013404930C942BE01194013E351C711C94
S1135FD019D0002106980A1C059CA047089001309E
S1135FE011D008A8017814AACB080898D41807235C
S1135FF003400121247A9940013E214203D0119D9E
S113600001351195E2E7119E002E05D106980899F5
S11360100122059B984722E5049B0899981904904E
S1136020002D03DB06980122059DA8470A9901313A
